:020000040000FA
:100000000128831603138801831603130F3086001B
:10001000831603130514831603170D308800831607
:10002000031789018316031300309F008312031303
:1000300081309F00C02083120313880183120313B1
:10004000073086052328831203130F308605831299
:100050000313B12083120313061C2F282A28C02063
:1000600083120313061C35282A28831203139F14B6
:100070009F183828C020831203131E08A000831283
:1000800003130F3086051030860483120313B42047
:100090002008253C031C522883120313861C2328A6
:1000A000D2203528831203139F149F185528C0208F
:1000B000831203131E08A000831203130F3086055A
:1000C0002030860483120313B7202008253C031830
:1000D00035282008523C031C732883120313861C06
:1000E0002328D2205228831203139F149F187628A6
:1000F000C020831203131E08A000831203130F30C5
:1001000086054030860483120313BA202008523C2F
:100110000318522820087B3C031C942883120313E5
:10012000861C2328D2207328831203139F149F1840
:100130009728C020831203131E08A0008312031304
:100140000F3086058030860483120313BD202008FB
:100150007B3C0318732883120313861C2328D220A8
:1001600094283F30880008000630880008005B3083
:10017000880008004F3088000800663088000800BA
:100180004230A100FA30A200A20BC428A10BC22861
:1001900008008530A100FA30A200A20BCD28A10BE7
:1001A000CB2808000630A300C920A30BD4280800E0
:02400E00C433B9
:02401000FF2F80
:00000001FF
