:020000040000FA
:020000003028A6
:020008000429C9
:10006000831603178801890183160313880103305F
:10007000860083120313880106183F2843280030A6
:10008000A0007A2047280130A0008F2047280618BA
:100090005E28012106185E282008031955285028DB
:1000A0000030A000A3207A205A280130A000A02010
:1000B0008F205A28061C5A28012147282008031996
:1000C0006228792886184728F82086184728A70A22
:1000D00004302702031C6D28A701A9202808A200CC
:1000E000A4012B08A3000130A500861C7528F82068
:1000F0004728472810108316023081008312A70179
:10010000A9202808A200A4012B08A3000130A50003
:10011000A101A601CE308100A0308B0008008B1217
:100120003130900059308F00FC308E00AC01AD01B1
:100130000130880083160C148312C0308B00080035
:100140008B120B110800101083160C1083120C1068
:1001500008002708AF00AF080319B428AF0BB12877
:10016000BD28AF0BCF28C628D820A800DA20A900C8
:10017000DC20AA00DE20AB000800E020A800E2207E
:10018000A900E420AA00E620AB000800E820A800AF
:10019000EA20A900EC20AA00EE20AB000800F02025
:1001A000A800F220A900F420AA00F620AB00080065
:1001B00014300800463008001430080046300800AB
:1001C0000A300800283008000A30080028300800EB
:1001D0003C3008005A3008003C3008005A30080013
:1001E000053008005F300800053008005F30080067
:1001F000FF30AE00FF30AF00AF0BFC28AE0BFA288B
:100200000800F820F82008002008031908294929C7
:100210000B1D09000B11CE308100A10A2108643C9E
:1002200003191B29220821020318081023082102A0
:10023000031888100900A10108148814A60A2608CA
:10024000323C031D0900A60124080319282930297E
:10025000A20A29082202031D36290130A4003629EA
:10026000A20328082202031D3629A4012508031928
:100270003A294229A30A2B082302031D0900013051
:10028000A5000900A3032A082302031D0900A501F4
:1002900009000C1C09000C1059308F00FC308E0036
:1002A0002D08031954295C29AC0A2C08073C031DAE
:1002B00060290130AD006029AC032C080319AD01A1
:0802C0002C080023880009004E
:1004000014344634143446340A3428340A34283434
:100410003C345A343C345A3405345F3405345F3448
:100600008207013402340434083410342034403476
:02061000803434
:02400E00C220CE
:02401000FF3E71
:00000001FF
