:020000040000FA
:020000003028A6
:02000800782856
:10006000831603178801890183160313880103305F
:10007000860083120313880106183F2843280030A6
:10008000A000DA2047280130A000F02047280618F9
:100090005E28612106185E2820080319552850287B
:1000A0000030A0000321DA205A280130A0000021EE
:1000B000F0205A28061C5A28612147282008031DD1
:1000C000472886184728582186184728A70A043049
:1000D0002702031C6C28A70109212808A200A401FB
:1000E0002B08A3000130A500861C7428582147283E
:1000F000F000030EF1000A08F200831203138A01D4
:10010000200803198428C3280B1DD3280B11CE30D7
:100110008100A10A2108643C0319972822082102C2
:10012000031808102308210203188810D328A101FE
:1001300008148814A60A2608323C031DD328A601F9
:1001400024080319AA28A20328082202031DB128A3
:10015000A401B128A20A29082202031DB1280130F6
:10016000A40025080319BB28A3032A082302031DA2
:10017000D328A501D328A30A2B082302031DD328C3
:100180000130A500D3280C1CD3280C100B308F0095
:10019000DC308E000818D028CD2801308800D32804
:1001A00002308800D32872088A00710E8300F00E96
:1001B000700E09001010880183160230810083122E
:1001C000A70109212808A200A4012B08A3000130DF
:1001D000A500A101A601CE308100A0308B0008004F
:1001E0008B128801313090000B308F00DC308E0094
:1001F0000130880083160C148312C0308B00080075
:100200008B120B110800101083160C1083120C10A7
:1002100008002708AD00AD0803191429AD0B1129FA
:100220001D29AD0B2F2926293821A8003A21A90024
:100230003C21AA003E21AB0008004021A800422139
:10024000A9004421AA004621AB0008004821A800CB
:100250004A21A9004C21AA004E21AB0008005021E0
:10026000A8005221A9005421AA005621AB00080081
:1002700014300800463008001430080046300800EA
:100280000A300800283008000A300800283008002A
:100290003C3008005A3008003C3008005A30080052
:1002A000053008005F300800053008005F300800A6
:1002B000FF30AC00FF30AD00AD0B5C29AC0B5A2910
:0802C000080058215821080034
:02400E00C220CE
:02401000FF3E71
:00000001FF
