:020000040000FA
:020000003028A6
:02000800A1282D
:1000200014344634143446340A3428340A34283418
:100030003C345A343C345A3405345F3405345F342C
:10006000831603178801890183160313880186010B
:1000700086140230810083120313A0308B008801A4
:10008000CE308100A60169206430AC00AC0B46285C
:100090002708A100A3012A08A2000130A400A001A2
:1000A000A501AB0186185228982086185228A60A66
:1000B00004302602031C5D28A60169202708A10040
:1000C000A3012A08A2000130A400861C65289820FC
:1000D00052282608AC00AC0803197428AC0B712810
:1000E0007D28AC0B8F2886281430A7004630A80046
:1000F0001430A9004630AA0008000A30A7002830B2
:10010000A8000A30A9002830AA0008003C30A70047
:100110005A30A8003C30A9005A30AA000800053027
:10012000A7005F30A8000530A9005F30AA000800D2
:10013000FF30AB00FF30AC00AC0B9C28AB0B9A2817
:1001400008000B11CE308100A00A2008643C03197E
:10015000B2282108200203180810220820020318E0
:1001600088100900A00108148814A50A2508323C4B
:10017000031DE028A50123080319BF28C728A10AE9
:1001800028082102031DCE280130A300CE28A10398
:1001900027082102031DCE28A301CE282408031915
:1001A000D228DA28A20A2A082202031DE0280130F8
:1001B000A400E028A20329082202031DE028A401CC
:0201C000090034
:02400E00C220CE
:02401000FF3E71
:00000001FF
